{
  "_format": "hh-sol-artifact-1",
  "contractName": "RentafiNative",
  "sourceName": "RentaFiNative/ERC721RentaFi.sol",
  "abi": [
    {
      "inputs": [
        {
          "internalType": "string",
          "name": "name_",
          "type": "string"
        },
        {
          "internalType": "string",
          "name": "symbol_",
          "type": "string"
        }
      ],
      "stateMutability": "nonpayable",
      "type": "constructor"
    },
    {
      "anonymous": false,
      "inputs": [
        {
          "indexed": true,
          "internalType": "address",
          "name": "owner",
          "type": "address"
        },
        {
          "indexed": true,
          "internalType": "address",
          "name": "approved",
          "type": "address"
        },
        {
          "indexed": true,
          "internalType": "uint256",
          "name": "tokenId",
          "type": "uint256"
        }
      ],
      "name": "Approval",
      "type": "event"
    },
    {
      "anonymous": false,
      "inputs": [
        {
          "indexed": true,
          "internalType": "address",
          "name": "owner",
          "type": "address"
        },
        {
          "indexed": true,
          "internalType": "address",
          "name": "operator",
          "type": "address"
        },
        {
          "indexed": false,
          "internalType": "bool",
          "name": "approved",
          "type": "bool"
        }
      ],
      "name": "ApprovalForAll",
      "type": "event"
    },
    {
      "anonymous": false,
      "inputs": [
        {
          "indexed": true,
          "internalType": "address",
          "name": "from",
          "type": "address"
        },
        {
          "indexed": true,
          "internalType": "address",
          "name": "to",
          "type": "address"
        },
        {
          "indexed": true,
          "internalType": "uint256",
          "name": "tokenId",
          "type": "uint256"
        }
      ],
      "name": "Transfer",
      "type": "event"
    },
    {
      "anonymous": false,
      "inputs": [
        {
          "indexed": true,
          "internalType": "uint256",
          "name": "tokenId",
          "type": "uint256"
        },
        {
          "indexed": true,
          "internalType": "address",
          "name": "owner",
          "type": "address"
        },
        {
          "indexed": true,
          "internalType": "address",
          "name": "lender",
          "type": "address"
        },
        {
          "indexed": false,
          "internalType": "uint64",
          "name": "expires",
          "type": "uint64"
        }
      ],
      "name": "UpdateOwner",
      "type": "event"
    },
    {
      "inputs": [
        {
          "internalType": "address",
          "name": "to",
          "type": "address"
        },
        {
          "internalType": "uint256",
          "name": "tokenId",
          "type": "uint256"
        }
      ],
      "name": "approve",
      "outputs": [],
      "stateMutability": "nonpayable",
      "type": "function"
    },
    {
      "inputs": [
        {
          "internalType": "address",
          "name": "owner",
          "type": "address"
        }
      ],
      "name": "balanceOf",
      "outputs": [
        {
          "internalType": "uint256",
          "name": "",
          "type": "uint256"
        }
      ],
      "stateMutability": "view",
      "type": "function"
    },
    {
      "inputs": [
        {
          "internalType": "uint256",
          "name": "tokenId",
          "type": "uint256"
        }
      ],
      "name": "getApproved",
      "outputs": [
        {
          "internalType": "address",
          "name": "",
          "type": "address"
        }
      ],
      "stateMutability": "view",
      "type": "function"
    },
    {
      "inputs": [
        {
          "internalType": "address",
          "name": "superOwner",
          "type": "address"
        },
        {
          "internalType": "address",
          "name": "operator",
          "type": "address"
        }
      ],
      "name": "isApprovedForAll",
      "outputs": [
        {
          "internalType": "bool",
          "name": "",
          "type": "bool"
        }
      ],
      "stateMutability": "view",
      "type": "function"
    },
    {
      "inputs": [],
      "name": "name",
      "outputs": [
        {
          "internalType": "string",
          "name": "",
          "type": "string"
        }
      ],
      "stateMutability": "view",
      "type": "function"
    },
    {
      "inputs": [
        {
          "internalType": "uint256",
          "name": "tokenId",
          "type": "uint256"
        }
      ],
      "name": "ownerExpires",
      "outputs": [
        {
          "internalType": "uint256",
          "name": "",
          "type": "uint256"
        }
      ],
      "stateMutability": "view",
      "type": "function"
    },
    {
      "inputs": [
        {
          "internalType": "uint256",
          "name": "tokenId",
          "type": "uint256"
        }
      ],
      "name": "ownerOf",
      "outputs": [
        {
          "internalType": "address",
          "name": "",
          "type": "address"
        }
      ],
      "stateMutability": "view",
      "type": "function"
    },
    {
      "inputs": [
        {
          "internalType": "address",
          "name": "from",
          "type": "address"
        },
        {
          "internalType": "address",
          "name": "to",
          "type": "address"
        },
        {
          "internalType": "uint256",
          "name": "tokenId",
          "type": "uint256"
        }
      ],
      "name": "safeTransferFrom",
      "outputs": [],
      "stateMutability": "nonpayable",
      "type": "function"
    },
    {
      "inputs": [
        {
          "internalType": "address",
          "name": "from",
          "type": "address"
        },
        {
          "internalType": "address",
          "name": "to",
          "type": "address"
        },
        {
          "internalType": "uint256",
          "name": "tokenId",
          "type": "uint256"
        },
        {
          "internalType": "bytes",
          "name": "data",
          "type": "bytes"
        }
      ],
      "name": "safeTransferFrom",
      "outputs": [],
      "stateMutability": "nonpayable",
      "type": "function"
    },
    {
      "inputs": [
        {
          "internalType": "address",
          "name": "operator",
          "type": "address"
        },
        {
          "internalType": "bool",
          "name": "approved",
          "type": "bool"
        }
      ],
      "name": "setApprovalForAll",
      "outputs": [],
      "stateMutability": "nonpayable",
      "type": "function"
    },
    {
      "inputs": [
        {
          "internalType": "uint256",
          "name": "tokenId",
          "type": "uint256"
        },
        {
          "internalType": "address",
          "name": "owner",
          "type": "address"
        },
        {
          "internalType": "uint64",
          "name": "expires",
          "type": "uint64"
        }
      ],
      "name": "setOwner",
      "outputs": [],
      "stateMutability": "nonpayable",
      "type": "function"
    },
    {
      "inputs": [
        {
          "internalType": "address",
          "name": "superOwner",
          "type": "address"
        }
      ],
      "name": "superBalanceOf",
      "outputs": [
        {
          "internalType": "uint256",
          "name": "",
          "type": "uint256"
        }
      ],
      "stateMutability": "view",
      "type": "function"
    },
    {
      "inputs": [
        {
          "internalType": "uint256",
          "name": "tokenId",
          "type": "uint256"
        }
      ],
      "name": "superOwnerOf",
      "outputs": [
        {
          "internalType": "address",
          "name": "",
          "type": "address"
        }
      ],
      "stateMutability": "view",
      "type": "function"
    },
    {
      "inputs": [
        {
          "internalType": "bytes4",
          "name": "interfaceId",
          "type": "bytes4"
        }
      ],
      "name": "supportsInterface",
      "outputs": [
        {
          "internalType": "bool",
          "name": "",
          "type": "bool"
        }
      ],
      "stateMutability": "view",
      "type": "function"
    },
    {
      "inputs": [],
      "name": "symbol",
      "outputs": [
        {
          "internalType": "string",
          "name": "",
          "type": "string"
        }
      ],
      "stateMutability": "view",
      "type": "function"
    },
    {
      "inputs": [
        {
          "internalType": "uint256",
          "name": "tokenId",
          "type": "uint256"
        }
      ],
      "name": "tokenURI",
      "outputs": [
        {
          "internalType": "string",
          "name": "",
          "type": "string"
        }
      ],
      "stateMutability": "view",
      "type": "function"
    },
    {
      "inputs": [
        {
          "internalType": "address",
          "name": "from",
          "type": "address"
        },
        {
          "internalType": "address",
          "name": "to",
          "type": "address"
        },
        {
          "internalType": "uint256",
          "name": "tokenId",
          "type": "uint256"
        }
      ],
      "name": "transferFrom",
      "outputs": [],
      "stateMutability": "nonpayable",
      "type": "function"
    }
  ],
  "bytecode": "0x60806040523480156200001157600080fd5b5060405162002baf38038062002baf8339818101604052810190620000379190620002c2565b818181600090805190602001906200005192919062000075565b5080600190805190602001906200006a92919062000075565b5050505050620003ac565b828054620000839062000376565b90600052602060002090601f016020900481019282620000a75760008555620000f3565b82601f10620000c257805160ff1916838001178555620000f3565b82800160010185558215620000f3579182015b82811115620000f2578251825591602001919060010190620000d5565b5b50905062000102919062000106565b5090565b5b808211156200012157600081600090555060010162000107565b5090565b6000604051905090565b600080fd5b600080fd5b600080fd5b600080fd5b6000601f19601f8301169050919050565b7f4e487b7100000000000000000000000000000000000000000000000000000000600052604160045260246000fd5b6200018e8262000143565b810181811067ffffffffffffffff82111715620001b057620001af62000154565b5b80604052505050565b6000620001c562000125565b9050620001d3828262000183565b919050565b600067ffffffffffffffff821115620001f657620001f562000154565b5b620002018262000143565b9050602081019050919050565b60005b838110156200022e57808201518184015260208101905062000211565b838111156200023e576000848401525b50505050565b60006200025b6200025584620001d8565b620001b9565b9050828152602081018484840111156200027a57620002796200013e565b5b620002878482856200020e565b509392505050565b600082601f830112620002a757620002a662000139565b5b8151620002b984826020860162000244565b91505092915050565b60008060408385031215620002dc57620002db6200012f565b5b600083015167ffffffffffffffff811115620002fd57620002fc62000134565b5b6200030b858286016200028f565b925050602083015167ffffffffffffffff8111156200032f576200032e62000134565b5b6200033d858286016200028f565b9150509250929050565b7f4e487b7100000000000000000000000000000000000000000000000000000000600052602260045260246000fd5b600060028204905060018216806200038f57607f821691505b60208210811415620003a657620003a562000347565b5b50919050565b6127f380620003bc6000396000f3fe608060405234801561001057600080fd5b506004361061010a5760003560e01c80636352211e116100a2578063a22cb46511610071578063a22cb465146102db578063b88d4fde146102f7578063c87b56dd14610313578063db7be70314610343578063e985e9c5146103735761010a565b80636352211e1461022d578063648507391461025d57806370a082311461028d57806395d89b41146102bd5761010a565b8063095ea7b3116100de578063095ea7b3146101bd57806323b872dd146101d957806342842e0e146101f55780634739d4c7146102115761010a565b8062a9d76b1461010f57806301ffc9a71461013f57806306fdde031461016f578063081812fc1461018d575b600080fd5b61012960048036038101906101249190611925565b6103a3565b6040516101369190611961565b60405180910390f35b610159600480360381019061015491906119d4565b6103c3565b6040516101669190611a1c565b60405180910390f35b6101776104a5565b6040516101849190611ad0565b60405180910390f35b6101a760048036038101906101a29190611925565b610537565b6040516101b49190611b33565b60405180910390f35b6101d760048036038101906101d29190611b7a565b61057d565b005b6101f360048036038101906101ee9190611bba565b610695565b005b61020f600480360381019061020a9190611bba565b6106f5565b005b61022b60048036038101906102269190611c4d565b610715565b005b61024760048036038101906102429190611925565b61087a565b6040516102549190611b33565b60405180910390f35b61027760048036038101906102729190611925565b6108e8565b6040516102849190611b33565b60405180910390f35b6102a760048036038101906102a29190611ca0565b61099a565b6040516102b49190611961565b60405180910390f35b6102c5610b58565b6040516102d29190611ad0565b60405180910390f35b6102f560048036038101906102f09190611cf9565b610bea565b005b610311600480360381019061030c9190611e6e565b610c00565b005b61032d60048036038101906103289190611925565b610c62565b60405161033a9190611ad0565b60405180910390f35b61035d60048036038101906103589190611ca0565b610cca565b60405161036a9190611961565b60405180910390f35b61038d60048036038101906103889190611ef1565b610d82565b60405161039a9190611a1c565b60405180910390f35b600060096000838152602001908152602001600020600201549050919050565b60007f80ac58cd000000000000000000000000000000000000000000000000000000007bffffffffffffffffffffffffffffffffffffffffffffffffffffffff1916827bffffffffffffffffffffffffffffffffffffffffffffffffffffffff1916148061048e57507f5b5e139f000000000000000000000000000000000000000000000000000000007bffffffffffffffffffffffffffffffffffffffffffffffffffffffff1916827bffffffffffffffffffffffffffffffffffffffffffffffffffffffff1916145b8061049e575061049d82610e16565b5b9050919050565b6060600080546104b490611f60565b80601f01602080910402602001604051908101604052809291908181526020018280546104e090611f60565b801561052d5780601f106105025761010080835404028352916020019161052d565b820191906000526020600020905b81548152906001019060200180831161051057829003601f168201915b5050505050905090565b600061054282610ef8565b6004600083815260200190815260200160002060009054906101000a900473ffffffffffffffffffffffffffffffffffffffff169050919050565b6000610588826108e8565b90508073ffffffffffffffffffffffffffffffffffffffff168373ffffffffffffffffffffffffffffffffffffffff1614156105f9576040517f08c379a00000000000000000000000000000000000000000000000000000000081526004016105f090612004565b60405180910390fd5b8073ffffffffffffffffffffffffffffffffffffffff16610618610f43565b73ffffffffffffffffffffffffffffffffffffffff161480610647575061064681610641610f43565b610d82565b5b610686576040517f08c379a000000000000000000000000000000000000000000000000000000000815260040161067d906120bc565b60405180910390fd5b6106908383610f4b565b505050565b6106a66106a0610f43565b82611004565b6106e5576040517f08c379a00000000000000000000000000000000000000000000000000000000081526004016106dc9061214e565b60405180910390fd5b6106f0838383611099565b505050565b61071083838360405180602001604052806000815250610c00565b505050565b61071f3384611004565b61075e576040517f08c379a00000000000000000000000000000000000000000000000000000000081526004016107559061214e565b60405180910390fd5b6000600960008581526020019081526020016000209050828160000160006101000a81548173ffffffffffffffffffffffffffffffffffffffff021916908373ffffffffffffffffffffffffffffffffffffffff1602179055508167ffffffffffffffff168160020181905550338160010160006101000a81548173ffffffffffffffffffffffffffffffffffffffff021916908373ffffffffffffffffffffffffffffffffffffffff1602179055503373ffffffffffffffffffffffffffffffffffffffff168373ffffffffffffffffffffffffffffffffffffffff16857f75b9167c34c13cae6f8ee8683804eb34336f197a93e10becae9ff81f8e70e3b98560405161086c919061217d565b60405180910390a450505050565b6000426009600084815260200190815260200160002060020154106108d7576009600083815260200190815260200160002060000160009054906101000a900473ffffffffffffffffffffffffffffffffffffffff1690506108e3565b6108e0826108e8565b90505b919050565b600080600a600084815260200190815260200160002060009054906101000a900473ffffffffffffffffffffffffffffffffffffffff169050600073ffffffffffffffffffffffffffffffffffffffff168173ffffffffffffffffffffffffffffffffffffffff161415610991576040517f08c379a0000000000000000000000000000000000000000000000000000000008152600401610988906121e4565b60405180910390fd5b80915050919050565b600080600080600090505b600880549050811015610b2f574260096000600884815481106109cb576109ca612204565b5b906000526020600020015481526020019081526020016000206002015410610b1c578473ffffffffffffffffffffffffffffffffffffffff166009600060088481548110610a1c57610a1b612204565b5b9060005260206000200154815260200190815260200160002060000160009054906101000a900473ffffffffffffffffffffffffffffffffffffffff1673ffffffffffffffffffffffffffffffffffffffff161415610a84578280610a8090612262565b9350505b8473ffffffffffffffffffffffffffffffffffffffff166009600060088481548110610ab357610ab2612204565b5b9060005260206000200154815260200190815260200160002060010160009054906101000a900473ffffffffffffffffffffffffffffffffffffffff1673ffffffffffffffffffffffffffffffffffffffff161415610b1b578180610b1790612262565b9250505b5b8080610b2790612262565b9150506109a5565b5080610b3a85610cca565b83610b4591906122ab565b610b4f9190612301565b92505050919050565b606060018054610b6790611f60565b80601f0160208091040260200160405190810160405280929190818152602001828054610b9390611f60565b8015610be05780601f10610bb557610100808354040283529160200191610be0565b820191906000526020600020905b815481529060010190602001808311610bc357829003601f168201915b5050505050905090565b610bfc610bf5610f43565b8383611300565b5050565b610c11610c0b610f43565b83611004565b610c50576040517f08c379a0000000000000000000000000000000000000000000000000000000008152600401610c479061214e565b60405180910390fd5b610c5c8484848461146d565b50505050565b6060610c6d82610ef8565b6000610c776114c9565b90506000815111610c975760405180602001604052806000815250610cc2565b80610ca1846114e0565b604051602001610cb2929190612371565b6040516020818303038152906040525b915050919050565b60008073ffffffffffffffffffffffffffffffffffffffff168273ffffffffffffffffffffffffffffffffffffffff161415610d3b576040517f08c379a0000000000000000000000000000000000000000000000000000000008152600401610d3290612407565b60405180910390fd5b600c60008373ffffffffffffffffffffffffffffffffffffffff1673ffffffffffffffffffffffffffffffffffffffff168152602001908152602001600020549050919050565b6000600e60008473ffffffffffffffffffffffffffffffffffffffff1673ffffffffffffffffffffffffffffffffffffffff16815260200190815260200160002060008373ffffffffffffffffffffffffffffffffffffffff1673ffffffffffffffffffffffffffffffffffffffff16815260200190815260200160002060009054906101000a900460ff16905092915050565b60007f80ac58cd000000000000000000000000000000000000000000000000000000007bffffffffffffffffffffffffffffffffffffffffffffffffffffffff1916827bffffffffffffffffffffffffffffffffffffffffffffffffffffffff19161480610ee157507f5b5e139f000000000000000000000000000000000000000000000000000000007bffffffffffffffffffffffffffffffffffffffffffffffffffffffff1916827bffffffffffffffffffffffffffffffffffffffffffffffffffffffff1916145b80610ef15750610ef082611641565b5b9050919050565b610f01816116ab565b610f40576040517f08c379a0000000000000000000000000000000000000000000000000000000008152600401610f37906121e4565b60405180910390fd5b50565b600033905090565b81600d600083815260200190815260200160002060006101000a81548173ffffffffffffffffffffffffffffffffffffffff021916908373ffffffffffffffffffffffffffffffffffffffff160217905550808273ffffffffffffffffffffffffffffffffffffffff16610fbe836108e8565b73ffffffffffffffffffffffffffffffffffffffff167f8c5be1e5ebec7d5bd14f71427d1e84f3dd0314c0f7b2291e5b200ac8c7c3b92560405160405180910390a45050565b600080611010836108e8565b90508073ffffffffffffffffffffffffffffffffffffffff168473ffffffffffffffffffffffffffffffffffffffff16148061105257506110518185610d82565b5b8061109057508373ffffffffffffffffffffffffffffffffffffffff1661107884610537565b73ffffffffffffffffffffffffffffffffffffffff16145b91505092915050565b8273ffffffffffffffffffffffffffffffffffffffff166110b9826108e8565b73ffffffffffffffffffffffffffffffffffffffff161461110f576040517f08c379a000000000000000000000000000000000000000000000000000000000815260040161110690612499565b60405180910390fd5b600073ffffffffffffffffffffffffffffffffffffffff168273ffffffffffffffffffffffffffffffffffffffff16141561117f576040517f08c379a00000000000000000000000000000000000000000000000000000000081526004016111769061252b565b60405180910390fd5b61118a838383611717565b611195600082610f4b565b6001600c60008573ffffffffffffffffffffffffffffffffffffffff1673ffffffffffffffffffffffffffffffffffffffff16815260200190815260200160002060008282546111e59190612301565b925050819055506001600c60008473ffffffffffffffffffffffffffffffffffffffff1673ffffffffffffffffffffffffffffffffffffffff168152602001908152602001600020600082825461123c91906122ab565b9250508190555081600a600083815260200190815260200160002060006101000a81548173ffffffffffffffffffffffffffffffffffffffff021916908373ffffffffffffffffffffffffffffffffffffffff160217905550808273ffffffffffffffffffffffffffffffffffffffff168473ffffffffffffffffffffffffffffffffffffffff167fddf252ad1be2c89b69c2b068fc378daa952ba7f163c4a11628f55a4df523b3ef60405160405180910390a46112fb83838361171c565b505050565b8173ffffffffffffffffffffffffffffffffffffffff168373ffffffffffffffffffffffffffffffffffffffff16141561136f576040517f08c379a000000000000000000000000000000000000000000000000000000000815260040161136690612597565b60405180910390fd5b80600e60008573ffffffffffffffffffffffffffffffffffffffff1673ffffffffffffffffffffffffffffffffffffffff16815260200190815260200160002060008473ffffffffffffffffffffffffffffffffffffffff1673ffffffffffffffffffffffffffffffffffffffff16815260200190815260200160002060006101000a81548160ff0219169083151502179055508173ffffffffffffffffffffffffffffffffffffffff168373ffffffffffffffffffffffffffffffffffffffff167f17307eab39ab6107e8899845ad3d59bd9653f200f220920489ca2b5937696c31836040516114609190611a1c565b60405180910390a3505050565b611478848484611099565b61148484848484611721565b6114c3576040517f08c379a00000000000000000000000000000000000000000000000000000000081526004016114ba90612629565b60405180910390fd5b50505050565b606060405180602001604052806000815250905090565b60606000821415611528576040518060400160405280600181526020017f3000000000000000000000000000000000000000000000000000000000000000815250905061163c565b600082905060005b6000821461155a57808061154390612262565b915050600a826115539190612678565b9150611530565b60008167ffffffffffffffff81111561157657611575611d43565b5b6040519080825280601f01601f1916602001820160405280156115a85781602001600182028036833780820191505090505b5090505b60008514611635576001826115c19190612301565b9150600a856115d091906126a9565b60306115dc91906122ab565b60f81b8183815181106115f2576115f1612204565b5b60200101907effffffffffffffffffffffffffffffffffffffffffffffffffffffffffffff1916908160001a905350600a8561162e9190612678565b94506115ac565b8093505050505b919050565b60007f01ffc9a7000000000000000000000000000000000000000000000000000000007bffffffffffffffffffffffffffffffffffffffffffffffffffffffff1916827bffffffffffffffffffffffffffffffffffffffffffffffffffffffff1916149050919050565b60008073ffffffffffffffffffffffffffffffffffffffff16600a600084815260200190815260200160002060009054906101000a900473ffffffffffffffffffffffffffffffffffffffff1673ffffffffffffffffffffffffffffffffffffffff1614159050919050565b505050565b505050565b60006117428473ffffffffffffffffffffffffffffffffffffffff166118b8565b156118ab578373ffffffffffffffffffffffffffffffffffffffff1663150b7a0261176b610f43565b8786866040518563ffffffff1660e01b815260040161178d949392919061272f565b602060405180830381600087803b1580156117a757600080fd5b505af19250505080156117d857506040513d601f19601f820116820180604052508101906117d59190612790565b60015b61185b573d8060008114611808576040519150601f19603f3d011682016040523d82523d6000602084013e61180d565b606091505b50600081511415611853576040517f08c379a000000000000000000000000000000000000000000000000000000000815260040161184a90612629565b60405180910390fd5b805181602001fd5b63150b7a0260e01b7bffffffffffffffffffffffffffffffffffffffffffffffffffffffff1916817bffffffffffffffffffffffffffffffffffffffffffffffffffffffff1916149150506118b0565b600190505b949350505050565b6000808273ffffffffffffffffffffffffffffffffffffffff163b119050919050565b6000604051905090565b600080fd5b600080fd5b6000819050919050565b611902816118ef565b811461190d57600080fd5b50565b60008135905061191f816118f9565b92915050565b60006020828403121561193b5761193a6118e5565b5b600061194984828501611910565b91505092915050565b61195b816118ef565b82525050565b60006020820190506119766000830184611952565b92915050565b60007fffffffff0000000000000000000000000000000000000000000000000000000082169050919050565b6119b18161197c565b81146119bc57600080fd5b50565b6000813590506119ce816119a8565b92915050565b6000602082840312156119ea576119e96118e5565b5b60006119f8848285016119bf565b91505092915050565b60008115159050919050565b611a1681611a01565b82525050565b6000602082019050611a316000830184611a0d565b92915050565b600081519050919050565b600082825260208201905092915050565b60005b83811015611a71578082015181840152602081019050611a56565b83811115611a80576000848401525b50505050565b6000601f19601f8301169050919050565b6000611aa282611a37565b611aac8185611a42565b9350611abc818560208601611a53565b611ac581611a86565b840191505092915050565b60006020820190508181036000830152611aea8184611a97565b905092915050565b600073ffffffffffffffffffffffffffffffffffffffff82169050919050565b6000611b1d82611af2565b9050919050565b611b2d81611b12565b82525050565b6000602082019050611b486000830184611b24565b92915050565b611b5781611b12565b8114611b6257600080fd5b50565b600081359050611b7481611b4e565b92915050565b60008060408385031215611b9157611b906118e5565b5b6000611b9f85828601611b65565b9250506020611bb085828601611910565b9150509250929050565b600080600060608486031215611bd357611bd26118e5565b5b6000611be186828701611b65565b9350506020611bf286828701611b65565b9250506040611c0386828701611910565b9150509250925092565b600067ffffffffffffffff82169050919050565b611c2a81611c0d565b8114611c3557600080fd5b50565b600081359050611c4781611c21565b92915050565b600080600060608486031215611c6657611c656118e5565b5b6000611c7486828701611910565b9350506020611c8586828701611b65565b9250506040611c9686828701611c38565b9150509250925092565b600060208284031215611cb657611cb56118e5565b5b6000611cc484828501611b65565b91505092915050565b611cd681611a01565b8114611ce157600080fd5b50565b600081359050611cf381611ccd565b92915050565b60008060408385031215611d1057611d0f6118e5565b5b6000611d1e85828601611b65565b9250506020611d2f85828601611ce4565b9150509250929050565b600080fd5b600080fd5b7f4e487b7100000000000000000000000000000000000000000000000000000000600052604160045260246000fd5b611d7b82611a86565b810181811067ffffffffffffffff82111715611d9a57611d99611d43565b5b80604052505050565b6000611dad6118db565b9050611db98282611d72565b919050565b600067ffffffffffffffff821115611dd957611dd8611d43565b5b611de282611a86565b9050602081019050919050565b82818337600083830152505050565b6000611e11611e0c84611dbe565b611da3565b905082815260208101848484011115611e2d57611e2c611d3e565b5b611e38848285611def565b509392505050565b600082601f830112611e5557611e54611d39565b5b8135611e65848260208601611dfe565b91505092915050565b60008060008060808587031215611e8857611e876118e5565b5b6000611e9687828801611b65565b9450506020611ea787828801611b65565b9350506040611eb887828801611910565b925050606085013567ffffffffffffffff811115611ed957611ed86118ea565b5b611ee587828801611e40565b91505092959194509250565b60008060408385031215611f0857611f076118e5565b5b6000611f1685828601611b65565b9250506020611f2785828601611b65565b9150509250929050565b7f4e487b7100000000000000000000000000000000000000000000000000000000600052602260045260246000fd5b60006002820490506001821680611f7857607f821691505b60208210811415611f8c57611f8b611f31565b5b50919050565b7f4552433732313a20617070726f76616c20746f2063757272656e74207375706560008201527f724f776e65720000000000000000000000000000000000000000000000000000602082015250565b6000611fee602683611a42565b9150611ff982611f92565b604082019050919050565b6000602082019050818103600083015261201d81611fe1565b9050919050565b7f4552433732313a20617070726f76652063616c6c6572206973206e6f7420746f60008201527f6b656e2073757065724f776e6572206e6f7220617070726f76656420666f722060208201527f616c6c0000000000000000000000000000000000000000000000000000000000604082015250565b60006120a6604383611a42565b91506120b182612024565b606082019050919050565b600060208201905081810360008301526120d581612099565b9050919050565b7f4552433732313a2063616c6c6572206973206e6f7420746f6b656e207375706560008201527f724f776e6572206e6f7220617070726f76656400000000000000000000000000602082015250565b6000612138603383611a42565b9150612143826120dc565b604082019050919050565b600060208201905081810360008301526121678161212b565b9050919050565b61217781611c0d565b82525050565b6000602082019050612192600083018461216e565b92915050565b7f4552433732313a20696e76616c696420746f6b656e2049440000000000000000600082015250565b60006121ce601883611a42565b91506121d982612198565b602082019050919050565b600060208201905081810360008301526121fd816121c1565b9050919050565b7f4e487b7100000000000000000000000000000000000000000000000000000000600052603260045260246000fd5b7f4e487b7100000000000000000000000000000000000000000000000000000000600052601160045260246000fd5b600061226d826118ef565b91507fffffffffffffffffffffffffffffffffffffffffffffffffffffffffffffffff8214156122a05761229f612233565b5b600182019050919050565b60006122b6826118ef565b91506122c1836118ef565b9250827fffffffffffffffffffffffffffffffffffffffffffffffffffffffffffffffff038211156122f6576122f5612233565b5b828201905092915050565b600061230c826118ef565b9150612317836118ef565b92508282101561232a57612329612233565b5b828203905092915050565b600081905092915050565b600061234b82611a37565b6123558185612335565b9350612365818560208601611a53565b80840191505092915050565b600061237d8285612340565b91506123898284612340565b91508190509392505050565b7f4552433732313a2061646472657373207a65726f206973206e6f74206120766160008201527f6c6964206f776e65720000000000000000000000000000000000000000000000602082015250565b60006123f1602983611a42565b91506123fc82612395565b604082019050919050565b60006020820190508181036000830152612420816123e4565b9050919050565b7f4552433732313a207472616e736665722066726f6d20696e636f72726563742060008201527f73757065724f776e657200000000000000000000000000000000000000000000602082015250565b6000612483602a83611a42565b915061248e82612427565b604082019050919050565b600060208201905081810360008301526124b281612476565b9050919050565b7f4552433732313a207472616e7366657220746f20746865207a65726f2061646460008201527f7265737300000000000000000000000000000000000000000000000000000000602082015250565b6000612515602483611a42565b9150612520826124b9565b604082019050919050565b6000602082019050818103600083015261254481612508565b9050919050565b7f4552433732313a20617070726f766520746f2063616c6c657200000000000000600082015250565b6000612581601983611a42565b915061258c8261254b565b602082019050919050565b600060208201905081810360008301526125b081612574565b9050919050565b7f4552433732313a207472616e7366657220746f206e6f6e20455243373231526560008201527f63656976657220696d706c656d656e7465720000000000000000000000000000602082015250565b6000612613603283611a42565b915061261e826125b7565b604082019050919050565b6000602082019050818103600083015261264281612606565b9050919050565b7f4e487b7100000000000000000000000000000000000000000000000000000000600052601260045260246000fd5b6000612683826118ef565b915061268e836118ef565b92508261269e5761269d612649565b5b828204905092915050565b60006126b4826118ef565b91506126bf836118ef565b9250826126cf576126ce612649565b5b828206905092915050565b600081519050919050565b600082825260208201905092915050565b6000612701826126da565b61270b81856126e5565b935061271b818560208601611a53565b61272481611a86565b840191505092915050565b60006080820190506127446000830187611b24565b6127516020830186611b24565b61275e6040830185611952565b818103606083015261277081846126f6565b905095945050505050565b60008151905061278a816119a8565b92915050565b6000602082840312156127a6576127a56118e5565b5b60006127b48482850161277b565b9150509291505056fea26469706673582212204172a64b72f688ecbf79009a53553fd9324458ffa62936ace4d2a51a859a853164736f6c63430008090033",
  "linkReferences": {},
  "deployedLinkReferences": {}
}