{
  "_format": "hh-sol-artifact-1",
  "contractName": "MockERC721RentaFi",
  "sourceName": "contracts/MockERC721RentaFi.sol",
  "abi": [
    {
      "inputs": [],
      "stateMutability": "nonpayable",
      "type": "constructor"
    },
    {
      "anonymous": false,
      "inputs": [
        {
          "indexed": true,
          "internalType": "address",
          "name": "owner",
          "type": "address"
        },
        {
          "indexed": true,
          "internalType": "address",
          "name": "approved",
          "type": "address"
        },
        {
          "indexed": true,
          "internalType": "uint256",
          "name": "tokenId",
          "type": "uint256"
        }
      ],
      "name": "Approval",
      "type": "event"
    },
    {
      "anonymous": false,
      "inputs": [
        {
          "indexed": true,
          "internalType": "address",
          "name": "owner",
          "type": "address"
        },
        {
          "indexed": true,
          "internalType": "address",
          "name": "operator",
          "type": "address"
        },
        {
          "indexed": false,
          "internalType": "bool",
          "name": "approved",
          "type": "bool"
        }
      ],
      "name": "ApprovalForAll",
      "type": "event"
    },
    {
      "anonymous": false,
      "inputs": [
        {
          "indexed": true,
          "internalType": "address",
          "name": "from",
          "type": "address"
        },
        {
          "indexed": true,
          "internalType": "address",
          "name": "to",
          "type": "address"
        },
        {
          "indexed": true,
          "internalType": "uint256",
          "name": "tokenId",
          "type": "uint256"
        }
      ],
      "name": "Transfer",
      "type": "event"
    },
    {
      "anonymous": false,
      "inputs": [
        {
          "indexed": true,
          "internalType": "uint256",
          "name": "tokenId",
          "type": "uint256"
        },
        {
          "indexed": true,
          "internalType": "address",
          "name": "owner",
          "type": "address"
        },
        {
          "indexed": true,
          "internalType": "address",
          "name": "lender",
          "type": "address"
        },
        {
          "indexed": false,
          "internalType": "uint64",
          "name": "expires",
          "type": "uint64"
        }
      ],
      "name": "UpdateOwner",
      "type": "event"
    },
    {
      "inputs": [
        {
          "internalType": "address",
          "name": "to",
          "type": "address"
        },
        {
          "internalType": "uint256",
          "name": "tokenId",
          "type": "uint256"
        }
      ],
      "name": "approve",
      "outputs": [],
      "stateMutability": "nonpayable",
      "type": "function"
    },
    {
      "inputs": [
        {
          "internalType": "address",
          "name": "owner",
          "type": "address"
        }
      ],
      "name": "balanceOf",
      "outputs": [
        {
          "internalType": "uint256",
          "name": "",
          "type": "uint256"
        }
      ],
      "stateMutability": "view",
      "type": "function"
    },
    {
      "inputs": [
        {
          "internalType": "uint256",
          "name": "tokenId",
          "type": "uint256"
        }
      ],
      "name": "burn",
      "outputs": [],
      "stateMutability": "nonpayable",
      "type": "function"
    },
    {
      "inputs": [],
      "name": "checkBaseURI",
      "outputs": [
        {
          "internalType": "string",
          "name": "",
          "type": "string"
        }
      ],
      "stateMutability": "view",
      "type": "function"
    },
    {
      "inputs": [
        {
          "internalType": "bytes4",
          "name": "interfaceId",
          "type": "bytes4"
        }
      ],
      "name": "checkSupportsInterface",
      "outputs": [
        {
          "internalType": "bool",
          "name": "",
          "type": "bool"
        }
      ],
      "stateMutability": "view",
      "type": "function"
    },
    {
      "inputs": [
        {
          "internalType": "uint256",
          "name": "tokenId",
          "type": "uint256"
        }
      ],
      "name": "checkTokenURI",
      "outputs": [
        {
          "internalType": "string",
          "name": "",
          "type": "string"
        }
      ],
      "stateMutability": "view",
      "type": "function"
    },
    {
      "inputs": [
        {
          "internalType": "uint256",
          "name": "tokenId",
          "type": "uint256"
        }
      ],
      "name": "getApproved",
      "outputs": [
        {
          "internalType": "address",
          "name": "",
          "type": "address"
        }
      ],
      "stateMutability": "view",
      "type": "function"
    },
    {
      "inputs": [
        {
          "internalType": "address",
          "name": "superOwner",
          "type": "address"
        },
        {
          "internalType": "address",
          "name": "operator",
          "type": "address"
        }
      ],
      "name": "isApprovedForAll",
      "outputs": [
        {
          "internalType": "bool",
          "name": "",
          "type": "bool"
        }
      ],
      "stateMutability": "view",
      "type": "function"
    },
    {
      "inputs": [
        {
          "internalType": "address",
          "name": "to",
          "type": "address"
        },
        {
          "internalType": "uint256",
          "name": "tokenId",
          "type": "uint256"
        }
      ],
      "name": "mint",
      "outputs": [],
      "stateMutability": "nonpayable",
      "type": "function"
    },
    {
      "inputs": [],
      "name": "name",
      "outputs": [
        {
          "internalType": "string",
          "name": "",
          "type": "string"
        }
      ],
      "stateMutability": "view",
      "type": "function"
    },
    {
      "inputs": [
        {
          "internalType": "uint256",
          "name": "tokenId",
          "type": "uint256"
        }
      ],
      "name": "ownerExpires",
      "outputs": [
        {
          "internalType": "uint256",
          "name": "",
          "type": "uint256"
        }
      ],
      "stateMutability": "view",
      "type": "function"
    },
    {
      "inputs": [
        {
          "internalType": "uint256",
          "name": "tokenId",
          "type": "uint256"
        }
      ],
      "name": "ownerOf",
      "outputs": [
        {
          "internalType": "address",
          "name": "",
          "type": "address"
        }
      ],
      "stateMutability": "view",
      "type": "function"
    },
    {
      "inputs": [
        {
          "internalType": "address",
          "name": "from",
          "type": "address"
        },
        {
          "internalType": "address",
          "name": "to",
          "type": "address"
        },
        {
          "internalType": "uint256",
          "name": "tokenId",
          "type": "uint256"
        }
      ],
      "name": "safeTransferFrom",
      "outputs": [],
      "stateMutability": "nonpayable",
      "type": "function"
    },
    {
      "inputs": [
        {
          "internalType": "address",
          "name": "from",
          "type": "address"
        },
        {
          "internalType": "address",
          "name": "to",
          "type": "address"
        },
        {
          "internalType": "uint256",
          "name": "tokenId",
          "type": "uint256"
        },
        {
          "internalType": "bytes",
          "name": "data",
          "type": "bytes"
        }
      ],
      "name": "safeTransferFrom",
      "outputs": [],
      "stateMutability": "nonpayable",
      "type": "function"
    },
    {
      "inputs": [
        {
          "internalType": "address",
          "name": "operator",
          "type": "address"
        },
        {
          "internalType": "bool",
          "name": "approved",
          "type": "bool"
        }
      ],
      "name": "setApprovalForAll",
      "outputs": [],
      "stateMutability": "nonpayable",
      "type": "function"
    },
    {
      "inputs": [
        {
          "internalType": "uint256",
          "name": "tokenId",
          "type": "uint256"
        },
        {
          "internalType": "address",
          "name": "owner",
          "type": "address"
        },
        {
          "internalType": "uint64",
          "name": "expires",
          "type": "uint64"
        }
      ],
      "name": "setOwner",
      "outputs": [],
      "stateMutability": "nonpayable",
      "type": "function"
    },
    {
      "inputs": [
        {
          "internalType": "address",
          "name": "superOwner",
          "type": "address"
        }
      ],
      "name": "superBalanceOf",
      "outputs": [
        {
          "internalType": "uint256",
          "name": "",
          "type": "uint256"
        }
      ],
      "stateMutability": "view",
      "type": "function"
    },
    {
      "inputs": [
        {
          "internalType": "uint256",
          "name": "tokenId",
          "type": "uint256"
        }
      ],
      "name": "superOwnerOf",
      "outputs": [
        {
          "internalType": "address",
          "name": "",
          "type": "address"
        }
      ],
      "stateMutability": "view",
      "type": "function"
    },
    {
      "inputs": [
        {
          "internalType": "bytes4",
          "name": "interfaceId",
          "type": "bytes4"
        }
      ],
      "name": "supportsInterface",
      "outputs": [
        {
          "internalType": "bool",
          "name": "",
          "type": "bool"
        }
      ],
      "stateMutability": "view",
      "type": "function"
    },
    {
      "inputs": [],
      "name": "symbol",
      "outputs": [
        {
          "internalType": "string",
          "name": "",
          "type": "string"
        }
      ],
      "stateMutability": "view",
      "type": "function"
    },
    {
      "inputs": [
        {
          "internalType": "uint256",
          "name": "tokenId",
          "type": "uint256"
        }
      ],
      "name": "tokenURI",
      "outputs": [
        {
          "internalType": "string",
          "name": "",
          "type": "string"
        }
      ],
      "stateMutability": "view",
      "type": "function"
    },
    {
      "inputs": [
        {
          "internalType": "address",
          "name": "_from",
          "type": "address"
        },
        {
          "internalType": "address",
          "name": "_to",
          "type": "address"
        },
        {
          "internalType": "uint256",
          "name": "_tokenId",
          "type": "uint256"
        }
      ],
      "name": "transfer",
      "outputs": [],
      "stateMutability": "nonpayable",
      "type": "function"
    },
    {
      "inputs": [
        {
          "internalType": "address",
          "name": "from",
          "type": "address"
        },
        {
          "internalType": "address",
          "name": "to",
          "type": "address"
        },
        {
          "internalType": "uint256",
          "name": "tokenId",
          "type": "uint256"
        }
      ],
      "name": "transferFrom",
      "outputs": [],
      "stateMutability": "nonpayable",
      "type": "function"
    }
  ],
  "bytecode": "0x60806040523480156200001157600080fd5b506040518060400160405280600481526020017f6d6f636b000000000000000000000000000000000000000000000000000000008152506040518060400160405280600481526020017f4d4f434b000000000000000000000000000000000000000000000000000000008152508181816000908051906020019062000098929190620000bc565b508060019080519060200190620000b1929190620000bc565b5050505050620001d1565b828054620000ca906200019b565b90600052602060002090601f016020900481019282620000ee57600085556200013a565b82601f106200010957805160ff19168380011785556200013a565b828001600101855582156200013a579182015b82811115620001395782518255916020019190600101906200011c565b5b5090506200014991906200014d565b5090565b5b80821115620001685760008160009055506001016200014e565b5090565b7f4e487b7100000000000000000000000000000000000000000000000000000000600052602260045260246000fd5b60006002820490506001821680620001b457607f821691505b60208210811415620001cb57620001ca6200016c565b5b50919050565b612e6d80620001e16000396000f3fe608060405234801561001057600080fd5b506004361061014c5760003560e01c80636352211e116100c3578063b88d4fde1161007c578063b88d4fde146103bf578063beabacc8146103db578063c87b56dd146103f7578063db7be70314610427578063e985e9c514610457578063fba68de5146104875761014c565b80636352211e146102d7578063648507391461030757806370a082311461033757806395d89b4114610367578063a22cb46514610385578063a996aab3146103a15761014c565b806323b872dd1161011557806323b872dd1461021b5780632d15687c1461023757806340c10f191461026757806342842e0e1461028357806342966c681461029f5780634739d4c7146102bb5761014c565b8062a9d76b1461015157806301ffc9a71461018157806306fdde03146101b1578063081812fc146101cf578063095ea7b3146101ff575b600080fd5b61016b60048036038101906101669190611e98565b6104b7565b6040516101789190611ed4565b60405180910390f35b61019b60048036038101906101969190611f47565b6104d7565b6040516101a89190611f8f565b60405180910390f35b6101b96105b9565b6040516101c69190612043565b60405180910390f35b6101e960048036038101906101e49190611e98565b61064b565b6040516101f691906120a6565b60405180910390f35b610219600480360381019061021491906120ed565b610691565b005b6102356004803603810190610230919061212d565b6107a9565b005b610251600480360381019061024c9190611e98565b610809565b60405161025e9190612043565b60405180910390f35b610281600480360381019061027c91906120ed565b61081b565b005b61029d6004803603810190610298919061212d565b610829565b005b6102b960048036038101906102b49190611e98565b610849565b005b6102d560048036038101906102d091906121c0565b610855565b005b6102f160048036038101906102ec9190611e98565b6109ba565b6040516102fe91906120a6565b60405180910390f35b610321600480360381019061031c9190611e98565b610a28565b60405161032e91906120a6565b60405180910390f35b610351600480360381019061034c9190612213565b610ada565b60405161035e9190611ed4565b60405180910390f35b61036f610c98565b60405161037c9190612043565b60405180910390f35b61039f600480360381019061039a919061226c565b610d2a565b005b6103a9610d40565b6040516103b69190612043565b60405180910390f35b6103d960048036038101906103d491906123e1565b610d4f565b005b6103f560048036038101906103f0919061212d565b610db1565b005b610411600480360381019061040c9190611e98565b610dc1565b60405161041e9190612043565b60405180910390f35b610441600480360381019061043c9190612213565b610e29565b60405161044e9190611ed4565b60405180910390f35b610471600480360381019061046c9190612464565b610ee1565b60405161047e9190611f8f565b60405180910390f35b6104a1600480360381019061049c9190611f47565b610f75565b6040516104ae9190611f8f565b60405180910390f35b600060096000838152602001908152602001600020600201549050919050565b60007f80ac58cd000000000000000000000000000000000000000000000000000000007bffffffffffffffffffffffffffffffffffffffffffffffffffffffff1916827bffffffffffffffffffffffffffffffffffffffffffffffffffffffff191614806105a257507f5b5e139f000000000000000000000000000000000000000000000000000000007bffffffffffffffffffffffffffffffffffffffffffffffffffffffff1916827bffffffffffffffffffffffffffffffffffffffffffffffffffffffff1916145b806105b257506105b182610f87565b5b9050919050565b6060600080546105c8906124d3565b80601f01602080910402602001604051908101604052809291908181526020018280546105f4906124d3565b80156106415780601f1061061657610100808354040283529160200191610641565b820191906000526020600020905b81548152906001019060200180831161062457829003601f168201915b5050505050905090565b600061065682611069565b6004600083815260200190815260200160002060009054906101000a900473ffffffffffffffffffffffffffffffffffffffff169050919050565b600061069c82610a28565b90508073ffffffffffffffffffffffffffffffffffffffff168373ffffffffffffffffffffffffffffffffffffffff16141561070d576040517f08c379a000000000000000000000000000000000000000000000000000000000815260040161070490612577565b60405180910390fd5b8073ffffffffffffffffffffffffffffffffffffffff1661072c6110b4565b73ffffffffffffffffffffffffffffffffffffffff16148061075b575061075a816107556110b4565b610ee1565b5b61079a576040517f08c379a00000000000000000000000000000000000000000000000000000000081526004016107919061262f565b60405180910390fd5b6107a483836110bc565b505050565b6107ba6107b46110b4565b82611175565b6107f9576040517f08c379a00000000000000000000000000000000000000000000000000000000081526004016107f0906126c1565b60405180910390fd5b61080483838361120a565b505050565b606061081482610dc1565b9050919050565b6108258282611471565b5050565b61084483838360405180602001604052806000815250610d4f565b505050565b61085281611674565b50565b61085f3384611175565b61089e576040517f08c379a0000000000000000000000000000000000000000000000000000000008152600401610895906126c1565b60405180910390fd5b6000600960008581526020019081526020016000209050828160000160006101000a81548173ffffffffffffffffffffffffffffffffffffffff021916908373ffffffffffffffffffffffffffffffffffffffff1602179055508167ffffffffffffffff168160020181905550338160010160006101000a81548173ffffffffffffffffffffffffffffffffffffffff021916908373ffffffffffffffffffffffffffffffffffffffff1602179055503373ffffffffffffffffffffffffffffffffffffffff168373ffffffffffffffffffffffffffffffffffffffff16857f75b9167c34c13cae6f8ee8683804eb34336f197a93e10becae9ff81f8e70e3b9856040516109ac91906126f0565b60405180910390a450505050565b600042600960008481526020019081526020016000206002015410610a17576009600083815260200190815260200160002060000160009054906101000a900473ffffffffffffffffffffffffffffffffffffffff169050610a23565b610a2082610a28565b90505b919050565b600080600a600084815260200190815260200160002060009054906101000a900473ffffffffffffffffffffffffffffffffffffffff169050600073ffffffffffffffffffffffffffffffffffffffff168173ffffffffffffffffffffffffffffffffffffffff161415610ad1576040517f08c379a0000000000000000000000000000000000000000000000000000000008152600401610ac890612757565b60405180910390fd5b80915050919050565b600080600080600090505b600880549050811015610c6f57426009600060088481548110610b0b57610b0a612777565b5b906000526020600020015481526020019081526020016000206002015410610c5c578473ffffffffffffffffffffffffffffffffffffffff166009600060088481548110610b5c57610b5b612777565b5b9060005260206000200154815260200190815260200160002060000160009054906101000a900473ffffffffffffffffffffffffffffffffffffffff1673ffffffffffffffffffffffffffffffffffffffff161415610bc4578280610bc0906127d5565b9350505b8473ffffffffffffffffffffffffffffffffffffffff166009600060088481548110610bf357610bf2612777565b5b9060005260206000200154815260200190815260200160002060010160009054906101000a900473ffffffffffffffffffffffffffffffffffffffff1673ffffffffffffffffffffffffffffffffffffffff161415610c5b578180610c57906127d5565b9250505b5b8080610c67906127d5565b915050610ae5565b5080610c7a85610e29565b83610c85919061281e565b610c8f9190612874565b92505050919050565b606060018054610ca7906124d3565b80601f0160208091040260200160405190810160405280929190818152602001828054610cd3906124d3565b8015610d205780601f10610cf557610100808354040283529160200191610d20565b820191906000526020600020905b815481529060010190602001808311610d0357829003601f168201915b5050505050905090565b610d3c610d356110b4565b8383611873565b5050565b6060610d4a6119e0565b905090565b610d60610d5a6110b4565b83611175565b610d9f576040517f08c379a0000000000000000000000000000000000000000000000000000000008152600401610d96906126c1565b60405180910390fd5b610dab848484846119f7565b50505050565b610dbc83838361120a565b505050565b6060610dcc82611069565b6000610dd66119e0565b90506000815111610df65760405180602001604052806000815250610e21565b80610e0084611a53565b604051602001610e119291906128e4565b6040516020818303038152906040525b915050919050565b60008073ffffffffffffffffffffffffffffffffffffffff168273ffffffffffffffffffffffffffffffffffffffff161415610e9a576040517f08c379a0000000000000000000000000000000000000000000000000000000008152600401610e919061297a565b60405180910390fd5b600c60008373ffffffffffffffffffffffffffffffffffffffff1673ffffffffffffffffffffffffffffffffffffffff168152602001908152602001600020549050919050565b6000600e60008473ffffffffffffffffffffffffffffffffffffffff1673ffffffffffffffffffffffffffffffffffffffff16815260200190815260200160002060008373ffffffffffffffffffffffffffffffffffffffff1673ffffffffffffffffffffffffffffffffffffffff16815260200190815260200160002060009054906101000a900460ff16905092915050565b6000610f80826104d7565b9050919050565b60007f80ac58cd000000000000000000000000000000000000000000000000000000007bffffffffffffffffffffffffffffffffffffffffffffffffffffffff1916827bffffffffffffffffffffffffffffffffffffffffffffffffffffffff1916148061105257507f5b5e139f000000000000000000000000000000000000000000000000000000007bffffffffffffffffffffffffffffffffffffffffffffffffffffffff1916827bffffffffffffffffffffffffffffffffffffffffffffffffffffffff1916145b80611062575061106182611bb4565b5b9050919050565b61107281611c1e565b6110b1576040517f08c379a00000000000000000000000000000000000000000000000000000000081526004016110a890612757565b60405180910390fd5b50565b600033905090565b81600d600083815260200190815260200160002060006101000a81548173ffffffffffffffffffffffffffffffffffffffff021916908373ffffffffffffffffffffffffffffffffffffffff160217905550808273ffffffffffffffffffffffffffffffffffffffff1661112f83610a28565b73ffffffffffffffffffffffffffffffffffffffff167f8c5be1e5ebec7d5bd14f71427d1e84f3dd0314c0f7b2291e5b200ac8c7c3b92560405160405180910390a45050565b60008061118183610a28565b90508073ffffffffffffffffffffffffffffffffffffffff168473ffffffffffffffffffffffffffffffffffffffff1614806111c357506111c28185610ee1565b5b8061120157508373ffffffffffffffffffffffffffffffffffffffff166111e98461064b565b73ffffffffffffffffffffffffffffffffffffffff16145b91505092915050565b8273ffffffffffffffffffffffffffffffffffffffff1661122a82610a28565b73ffffffffffffffffffffffffffffffffffffffff1614611280576040517f08c379a000000000000000000000000000000000000000000000000000000000815260040161127790612a0c565b60405180910390fd5b600073ffffffffffffffffffffffffffffffffffffffff168273ffffffffffffffffffffffffffffffffffffffff1614156112f0576040517f08c379a00000000000000000000000000000000000000000000000000000000081526004016112e790612a9e565b60405180910390fd5b6112fb838383611c8a565b6113066000826110bc565b6001600c60008573ffffffffffffffffffffffffffffffffffffffff1673ffffffffffffffffffffffffffffffffffffffff16815260200190815260200160002060008282546113569190612874565b925050819055506001600c60008473ffffffffffffffffffffffffffffffffffffffff1673ffffffffffffffffffffffffffffffffffffffff16815260200190815260200160002060008282546113ad919061281e565b9250508190555081600a600083815260200190815260200160002060006101000a81548173ffffffffffffffffffffffffffffffffffffffff021916908373ffffffffffffffffffffffffffffffffffffffff160217905550808273ffffffffffffffffffffffffffffffffffffffff168473ffffffffffffffffffffffffffffffffffffffff167fddf252ad1be2c89b69c2b068fc378daa952ba7f163c4a11628f55a4df523b3ef60405160405180910390a461146c838383611c8f565b505050565b600073ffffffffffffffffffffffffffffffffffffffff168273ffffffffffffffffffffffffffffffffffffffff1614156114e1576040517f08c379a00000000000000000000000000000000000000000000000000000000081526004016114d890612b0a565b60405180910390fd5b6114ea81611c1e565b1561152a576040517f08c379a000000000000000000000000000000000000000000000000000000000815260040161152190612b76565b60405180910390fd5b61153660008383611c8a565b6001600c60008473ffffffffffffffffffffffffffffffffffffffff1673ffffffffffffffffffffffffffffffffffffffff1681526020019081526020016000206000828254611586919061281e565b9250508190555081600a600083815260200190815260200160002060006101000a81548173ffffffffffffffffffffffffffffffffffffffff021916908373ffffffffffffffffffffffffffffffffffffffff1602179055506008819080600181540180825580915050600190039060005260206000200160009091909190915055808273ffffffffffffffffffffffffffffffffffffffff16600073ffffffffffffffffffffffffffffffffffffffff167fddf252ad1be2c89b69c2b068fc378daa952ba7f163c4a11628f55a4df523b3ef60405160405180910390a461167060008383611c8f565b5050565b600061167f82610a28565b905061168d81600084611c8a565b6116986000836110bc565b6001600c60008373ffffffffffffffffffffffffffffffffffffffff1673ffffffffffffffffffffffffffffffffffffffff16815260200190815260200160002060008282546116e89190612874565b92505081905550600a600083815260200190815260200160002060006101000a81549073ffffffffffffffffffffffffffffffffffffffff021916905560005b60088054905081101561180657826008828154811061174a57611749612777565b5b906000526020600020015414156117f357600160088054905061176d9190612874565b81146117c657600860016008805490506117879190612874565b8154811061179857611797612777565b5b9060005260206000200154600882815481106117b7576117b6612777565b5b90600052602060002001819055505b60088054806117d8576117d7612b96565b5b60019003818190600052602060002001600090559055611806565b80806117fe906127d5565b915050611728565b5081600073ffffffffffffffffffffffffffffffffffffffff168273ffffffffffffffffffffffffffffffffffffffff167fddf252ad1be2c89b69c2b068fc378daa952ba7f163c4a11628f55a4df523b3ef60405160405180910390a461186f81600084611c8f565b5050565b8173ffffffffffffffffffffffffffffffffffffffff168373ffffffffffffffffffffffffffffffffffffffff1614156118e2576040517f08c379a00000000000000000000000000000000000000000000000000000000081526004016118d990612c11565b60405180910390fd5b80600e60008573ffffffffffffffffffffffffffffffffffffffff1673ffffffffffffffffffffffffffffffffffffffff16815260200190815260200160002060008473ffffffffffffffffffffffffffffffffffffffff1673ffffffffffffffffffffffffffffffffffffffff16815260200190815260200160002060006101000a81548160ff0219169083151502179055508173ffffffffffffffffffffffffffffffffffffffff168373ffffffffffffffffffffffffffffffffffffffff167f17307eab39ab6107e8899845ad3d59bd9653f200f220920489ca2b5937696c31836040516119d39190611f8f565b60405180910390a3505050565b606060405180602001604052806000815250905090565b611a0284848461120a565b611a0e84848484611c94565b611a4d576040517f08c379a0000000000000000000000000000000000000000000000000000000008152600401611a4490612ca3565b60405180910390fd5b50505050565b60606000821415611a9b576040518060400160405280600181526020017f30000000000000000000000000000000000000000000000000000000000000008152509050611baf565b600082905060005b60008214611acd578080611ab6906127d5565b915050600a82611ac69190612cf2565b9150611aa3565b60008167ffffffffffffffff811115611ae957611ae86122b6565b5b6040519080825280601f01601f191660200182016040528015611b1b5781602001600182028036833780820191505090505b5090505b60008514611ba857600182611b349190612874565b9150600a85611b439190612d23565b6030611b4f919061281e565b60f81b818381518110611b6557611b64612777565b5b60200101907effffffffffffffffffffffffffffffffffffffffffffffffffffffffffffff1916908160001a905350600a85611ba19190612cf2565b9450611b1f565b8093505050505b919050565b60007f01ffc9a7000000000000000000000000000000000000000000000000000000007bffffffffffffffffffffffffffffffffffffffffffffffffffffffff1916827bffffffffffffffffffffffffffffffffffffffffffffffffffffffff1916149050919050565b60008073ffffffffffffffffffffffffffffffffffffffff16600a600084815260200190815260200160002060009054906101000a900473ffffffffffffffffffffffffffffffffffffffff1673ffffffffffffffffffffffffffffffffffffffff1614159050919050565b505050565b505050565b6000611cb58473ffffffffffffffffffffffffffffffffffffffff16611e2b565b15611e1e578373ffffffffffffffffffffffffffffffffffffffff1663150b7a02611cde6110b4565b8786866040518563ffffffff1660e01b8152600401611d009493929190612da9565b602060405180830381600087803b158015611d1a57600080fd5b505af1925050508015611d4b57506040513d601f19601f82011682018060405250810190611d489190612e0a565b60015b611dce573d8060008114611d7b576040519150601f19603f3d011682016040523d82523d6000602084013e611d80565b606091505b50600081511415611dc6576040517f08c379a0000000000000000000000000000000000000000000000000000000008152600401611dbd90612ca3565b60405180910390fd5b805181602001fd5b63150b7a0260e01b7bffffffffffffffffffffffffffffffffffffffffffffffffffffffff1916817bffffffffffffffffffffffffffffffffffffffffffffffffffffffff191614915050611e23565b600190505b949350505050565b6000808273ffffffffffffffffffffffffffffffffffffffff163b119050919050565b6000604051905090565b600080fd5b600080fd5b6000819050919050565b611e7581611e62565b8114611e8057600080fd5b50565b600081359050611e9281611e6c565b92915050565b600060208284031215611eae57611ead611e58565b5b6000611ebc84828501611e83565b91505092915050565b611ece81611e62565b82525050565b6000602082019050611ee96000830184611ec5565b92915050565b60007fffffffff0000000000000000000000000000000000000000000000000000000082169050919050565b611f2481611eef565b8114611f2f57600080fd5b50565b600081359050611f4181611f1b565b92915050565b600060208284031215611f5d57611f5c611e58565b5b6000611f6b84828501611f32565b91505092915050565b60008115159050919050565b611f8981611f74565b82525050565b6000602082019050611fa46000830184611f80565b92915050565b600081519050919050565b600082825260208201905092915050565b60005b83811015611fe4578082015181840152602081019050611fc9565b83811115611ff3576000848401525b50505050565b6000601f19601f8301169050919050565b600061201582611faa565b61201f8185611fb5565b935061202f818560208601611fc6565b61203881611ff9565b840191505092915050565b6000602082019050818103600083015261205d818461200a565b905092915050565b600073ffffffffffffffffffffffffffffffffffffffff82169050919050565b600061209082612065565b9050919050565b6120a081612085565b82525050565b60006020820190506120bb6000830184612097565b92915050565b6120ca81612085565b81146120d557600080fd5b50565b6000813590506120e7816120c1565b92915050565b6000806040838503121561210457612103611e58565b5b6000612112858286016120d8565b925050602061212385828601611e83565b9150509250929050565b60008060006060848603121561214657612145611e58565b5b6000612154868287016120d8565b9350506020612165868287016120d8565b925050604061217686828701611e83565b9150509250925092565b600067ffffffffffffffff82169050919050565b61219d81612180565b81146121a857600080fd5b50565b6000813590506121ba81612194565b92915050565b6000806000606084860312156121d9576121d8611e58565b5b60006121e786828701611e83565b93505060206121f8868287016120d8565b9250506040612209868287016121ab565b9150509250925092565b60006020828403121561222957612228611e58565b5b6000612237848285016120d8565b91505092915050565b61224981611f74565b811461225457600080fd5b50565b60008135905061226681612240565b92915050565b6000806040838503121561228357612282611e58565b5b6000612291858286016120d8565b92505060206122a285828601612257565b9150509250929050565b600080fd5b600080fd5b7f4e487b7100000000000000000000000000000000000000000000000000000000600052604160045260246000fd5b6122ee82611ff9565b810181811067ffffffffffffffff8211171561230d5761230c6122b6565b5b80604052505050565b6000612320611e4e565b905061232c82826122e5565b919050565b600067ffffffffffffffff82111561234c5761234b6122b6565b5b61235582611ff9565b9050602081019050919050565b82818337600083830152505050565b600061238461237f84612331565b612316565b9050828152602081018484840111156123a05761239f6122b1565b5b6123ab848285612362565b509392505050565b600082601f8301126123c8576123c76122ac565b5b81356123d8848260208601612371565b91505092915050565b600080600080608085870312156123fb576123fa611e58565b5b6000612409878288016120d8565b945050602061241a878288016120d8565b935050604061242b87828801611e83565b925050606085013567ffffffffffffffff81111561244c5761244b611e5d565b5b612458878288016123b3565b91505092959194509250565b6000806040838503121561247b5761247a611e58565b5b6000612489858286016120d8565b925050602061249a858286016120d8565b9150509250929050565b7f4e487b7100000000000000000000000000000000000000000000000000000000600052602260045260246000fd5b600060028204905060018216806124eb57607f821691505b602082108114156124ff576124fe6124a4565b5b50919050565b7f4552433732313a20617070726f76616c20746f2063757272656e74207375706560008201527f724f776e65720000000000000000000000000000000000000000000000000000602082015250565b6000612561602683611fb5565b915061256c82612505565b604082019050919050565b6000602082019050818103600083015261259081612554565b9050919050565b7f4552433732313a20617070726f76652063616c6c6572206973206e6f7420746f60008201527f6b656e2073757065724f776e6572206e6f7220617070726f76656420666f722060208201527f616c6c0000000000000000000000000000000000000000000000000000000000604082015250565b6000612619604383611fb5565b915061262482612597565b606082019050919050565b600060208201905081810360008301526126488161260c565b9050919050565b7f4552433732313a2063616c6c6572206973206e6f7420746f6b656e207375706560008201527f724f776e6572206e6f7220617070726f76656400000000000000000000000000602082015250565b60006126ab603383611fb5565b91506126b68261264f565b604082019050919050565b600060208201905081810360008301526126da8161269e565b9050919050565b6126ea81612180565b82525050565b600060208201905061270560008301846126e1565b92915050565b7f4552433732313a20696e76616c696420746f6b656e2049440000000000000000600082015250565b6000612741601883611fb5565b915061274c8261270b565b602082019050919050565b6000602082019050818103600083015261277081612734565b9050919050565b7f4e487b7100000000000000000000000000000000000000000000000000000000600052603260045260246000fd5b7f4e487b7100000000000000000000000000000000000000000000000000000000600052601160045260246000fd5b60006127e082611e62565b91507fffffffffffffffffffffffffffffffffffffffffffffffffffffffffffffffff821415612813576128126127a6565b5b600182019050919050565b600061282982611e62565b915061283483611e62565b9250827fffffffffffffffffffffffffffffffffffffffffffffffffffffffffffffffff03821115612869576128686127a6565b5b828201905092915050565b600061287f82611e62565b915061288a83611e62565b92508282101561289d5761289c6127a6565b5b828203905092915050565b600081905092915050565b60006128be82611faa565b6128c881856128a8565b93506128d8818560208601611fc6565b80840191505092915050565b60006128f082856128b3565b91506128fc82846128b3565b91508190509392505050565b7f4552433732313a2061646472657373207a65726f206973206e6f74206120766160008201527f6c6964206f776e65720000000000000000000000000000000000000000000000602082015250565b6000612964602983611fb5565b915061296f82612908565b604082019050919050565b6000602082019050818103600083015261299381612957565b9050919050565b7f4552433732313a207472616e736665722066726f6d20696e636f72726563742060008201527f73757065724f776e657200000000000000000000000000000000000000000000602082015250565b60006129f6602a83611fb5565b9150612a018261299a565b604082019050919050565b60006020820190508181036000830152612a25816129e9565b9050919050565b7f4552433732313a207472616e7366657220746f20746865207a65726f2061646460008201527f7265737300000000000000000000000000000000000000000000000000000000602082015250565b6000612a88602483611fb5565b9150612a9382612a2c565b604082019050919050565b60006020820190508181036000830152612ab781612a7b565b9050919050565b7f4552433732313a206d696e7420746f20746865207a65726f2061646472657373600082015250565b6000612af4602083611fb5565b9150612aff82612abe565b602082019050919050565b60006020820190508181036000830152612b2381612ae7565b9050919050565b7f4552433732313a20746f6b656e20616c7265616479206d696e74656400000000600082015250565b6000612b60601c83611fb5565b9150612b6b82612b2a565b602082019050919050565b60006020820190508181036000830152612b8f81612b53565b9050919050565b7f4e487b7100000000000000000000000000000000000000000000000000000000600052603160045260246000fd5b7f4552433732313a20617070726f766520746f2063616c6c657200000000000000600082015250565b6000612bfb601983611fb5565b9150612c0682612bc5565b602082019050919050565b60006020820190508181036000830152612c2a81612bee565b9050919050565b7f4552433732313a207472616e7366657220746f206e6f6e20455243373231526560008201527f63656976657220696d706c656d656e7465720000000000000000000000000000602082015250565b6000612c8d603283611fb5565b9150612c9882612c31565b604082019050919050565b60006020820190508181036000830152612cbc81612c80565b9050919050565b7f4e487b7100000000000000000000000000000000000000000000000000000000600052601260045260246000fd5b6000612cfd82611e62565b9150612d0883611e62565b925082612d1857612d17612cc3565b5b828204905092915050565b6000612d2e82611e62565b9150612d3983611e62565b925082612d4957612d48612cc3565b5b828206905092915050565b600081519050919050565b600082825260208201905092915050565b6000612d7b82612d54565b612d858185612d5f565b9350612d95818560208601611fc6565b612d9e81611ff9565b840191505092915050565b6000608082019050612dbe6000830187612097565b612dcb6020830186612097565b612dd86040830185611ec5565b8181036060830152612dea8184612d70565b905095945050505050565b600081519050612e0481611f1b565b92915050565b600060208284031215612e2057612e1f611e58565b5b6000612e2e84828501612df5565b9150509291505056fea264697066735822122055c6257b94ebfea3a1d5b2d3dfd9c58eac8b984ead7d1eaa86cdd5ba1897649864736f6c63430008090033",
  "linkReferences": {},
  "deployedLinkReferences": {}
}